:020000040800F2
:1000000000C00020E9C20008770F0008790F00083F
:100010007B0F00087D0F00087F0F00080000000024
:10002000000000000000000000000000810F000838
:10003000830F000800000000850F0008870F0008EC
:1000400031C3000831C3000831C3000831C30008C0
:1000500031C3000831C3000831C3000831C30008B0
:1000600031C3000831C3000831C30008BDAF000828
:100070009520000831C30008BD1B000831C30008EB
:1000800031C30008211E000831C3000831C3000835
:1000900031C3000831C3000831C3000831C3000870
:1000A00031C3000831C3000831C3000831C3000860
:1000B000AD280008292900084129000831C300089B
:1000C00031C3000831C3000831C3000831C3000840
:1000D00031C30008511B0008B51D00082920000885
:1000E00031C3000831C3000831C3000831C3000820
:1000F00031C3000831C3000831C3000831C3000810
:1001000031C3000831C300087129000831C3000859
:10011000A122000831C3000889290008A12900088C
:1001200031C3000831C3000831C3000809230008A7
:1001300000000000000000000000000000000000BF
:1001400000000000000000000000000000000000AF
:10015000000000000000000000000000000000009F
:10016000000000000000000000000000000000008F
:10017000000000000000000000000000000000007F
:10018000000000000000000000000000000000006F
:10019000000000000000000000000000000000005F
:1001A000000000000000000000000000000000004F
:1001B000000000000000000000000000000000003F
:1001C000000000000000000000000000000000002F
:1001D000000000000000000000000000000000001F
:0401E0005FF8E0F1F3
:1001E80010B5054C237833B9044B13B10448AFF369
:1001F80000800123237010BDB8000020000000001B
:1002080038C8000808B5034B1BB103490348AFF3CE
:10021800008008BD00000000BC00002038C80008AD
:100228004FF0FF0C1CEAD0521EBF1CEAD15392EAD1
:100238000C0F93EA0C0F6FD01A4480EA010C4002AD
:1002480018BF5FEA41211ED04FF0006343EA501007
:1002580043EA5111A0FB01310CF00040B1F5000F49
:100268003EBF490041EAD3715B0040EA010062F1F8
:100278007F02FD2A1DD8B3F1004F40EBC25008BFE2
:1002880020F00100704790F0000F0CF0004C08BF00
:1002980049024CEA502040EA51207F3AC2BFD2F1CD
:1002A800FF0340EAC250704740F400004FF00003DB
:1002B800013A5DDC12F1190FDCBF00F00040704715
:1002C800C2F10002410021FA02F1C2F1200200FA53
:1002D80002FC5FEA310040F1000053EA4C0308BF1A
:1002E80020EADC70704792F0000F00F0004C02BF6B
:1002F800400010F4000F013AF9D040EA0C0093F0E6
:10030800000F01F0004C02BF490011F4000F013B3F
:10031800F9D041EA0C018FE70CEAD15392EA0C0FAD
:1003280018BF93EA0C0F0AD030F0004C18BF31F018
:10033800004CD8D180EA010000F00040704790F0EE
:10034800000F17BF90F0004F084691F0000F91F092
:10035800004F14D092EA0C0F01D142020FD193EA58
:100368000C0F03D14B0218BF084608D180EA0100E0
:1003780000F0004040F0FE4040F40000704740F0BC
:10038800FE4040F44000704781F0004102E000BFA9
:1003980083F0004330B54FEA41044FEA430594EA3D
:1003A800050F08BF90EA020F1FBF54EA000C55EA78
:1003B800020C7FEA645C7FEA655C00F0E2804FEA49
:1003C8005454D4EB5555B8BF6D420CDD2C4480EA2B
:1003D800020281EA030382EA000083EA010180EA5B
:1003E800020281EA0303362D88BF30BD11F0004FA9
:1003F8004FEA01314FF4801C4CEA113102D04042DF
:1004080061EB410113F0004F4FEA03334CEA133319
:1004180002D0524263EB430394EA050F00F0A78031
:10042800A4F10104D5F1200E0DDB02FA0EFC22FA2C
:1004380005F2801841F1000103FA0EF2801843FA20
:1004480005F359410EE0A5F120050EF1200E012A11
:1004580003FA0EFC28BF4CF0020C43FA05F3C0184F
:1004680051EBE37101F0004507D54FF0000EDCF1C8
:10047800000C7EEB00006EEB0101B1F5801F1BD371
:10048800B1F5001F0CD349085FEA30004FEA3C0C75
:1004980004F101044FEA445212F5800F80F09A806B
:1004A800BCF1004F08BF5FEA500C50F1000041EB6F
:1004B800045141EA050130BD5FEA4C0C404141EB73
:1004C8000101013C28BFB1F5801FE9D291F0000F6E
:1004D80004BF01460020B1FA81F308BF2033A3F11D
:1004E8000B03B3F120020CDA0C3208DD02F1140C14
:1004F800C2F10C0201FA0CF021FA02F10CE002F14F
:100508001402D8BFC2F1200C01FA02F120FA0CFC47
:10051800DCBF41EA0C019040E41AA2BF01EB045190
:10052800294330BD6FEA04041F3C1CDA0C340EDC8E
:1005380004F11404C4F1200220FA04F001FA02F3D1
:1005480040EA030021FA04F345EA030130BDC4F18F
:100558000C04C4F1200220FA02F001FA04F340EA84
:100568000300294630BD21FA04F0294630BD94F035
:10057800000F83F4801306BF81F480110134013D1C
:100588004EE77FEA645C18BF7FEA655C29D094EA8D
:10059800050F08BF90EA020F05D054EA000C04BF0B
:1005A8001946104630BD91EA030F1EBF00210020F6
:1005B80030BD5FEA545C05D14000494128BF41F095
:1005C800004130BD14F580043CBF01F5801130BDF9
:1005D80001F0004545F0FE4141F470014FF0000084
:1005E80030BD7FEA645C1ABF194610467FEA655C35
:1005F8001CBF0B46024650EA013406BF52EA0335D7
:1006080091EA030F41F4002130BD00BF90F0000FC4
:1006180004BF0021704730B54FF4806404F1320400
:100628004FF000054FF0000150E700BF90F0000FB9
:1006380004BF0021704730B54FF4806404F13204E0
:1006480010F0004548BF40424FF000013EE700BFB0
:1006580042004FEAE2014FEA31014FEA02701FBF40
:1006680012F07F4393F07F4F81F06051704732F072
:100678007F4208BF704793F07F4F04BF41F40021C9
:10068800704730B54FF4607401F0004521F0004127
:100698001CE700BF50EA010208BF704730B54FF0B1
:1006A80000050AE050EA010208BF704730B511F0B2
:1006B800004502D5404261EB41014FF4806404F1EA
:1006C80032045FEA915C3FF4D8AE4FF003025FEA70
:1006D800DC0C18BF03325FEADC0C18BF033202EBF4
:1006E800DC02C2F1200300FA03FC20FA02F001FA4E
:1006F80003FE40EA0E0021FA02F11444BDE600BFF1
:1007080070B54FF0FF0C4CF4E06C1CEA11541DBF9F
:100718001CEA135594EA0C0F95EA0C0F00F0DEF86A
:100728002C4481EA030621EA4C5123EA4C5350EA4F
:10073800013518BF52EA033541F4801143F48013A0
:1007480038D0A0FB02CE4FF00005E1FB02E506F031
:100758000042E0FB03E54FF00006E1FB03569CF086
:10076800000F18BF4EF0010EA4F1FF04B6F5007F8C
:1007780064F5407404D25FEA4E0E6D4146EB0606FE
:1007880042EAC62141EA55514FEAC52040EA5E5087
:100798004FEACE2EB4F1FD0C88BFBCF5E06F1ED831
:1007A800BEF1004F08BF5FEA500E50F1000041EB68
:1007B800045170BD06F0004646EA010140EA020015
:1007C80081EA0301B4EB5C04C2BFD4EB0C0541EA37
:1007D800045170BD41F480114FF0000E013C00F34C
:1007E800AB8014F1360FDEBF002001F0004170BD70
:1007F800C4F10004203C35DA0C341BDC04F1140489
:10080800C4F1200500FA05F320FA04F001FA05F214
:1008180040EA020001F0004221F0004110EBD370E1
:1008280021FA04F642EB06015EEA430E08BF20EA0D
:10083800D37070BDC4F10C04C4F1200500FA04F3B0
:1008480020FA05F001FA04F240EA020001F0004142
:1008580010EBD37041F100015EEA430E08BF20EAB5
:10086800D37070BDC4F1200500FA05F24EEA020EFD
:1008780020FA04F301FA05F243EA020321FA04F02C
:1008880001F0004121FA04F220EA020000EBD370E3
:100898005EEA430E08BF20EAD37070BD94F0000FE3
:1008A8000FD101F00046400041EB010111F4801F17
:1008B80008BF013CF7D041EA060195F0000F18BFC8
:1008C800704703F00046520043EB030313F4801F04
:1008D80008BF013DF7D043EA0603704794EA0C0FBE
:1008E8000CEA135518BF95EA0C0F0CD050EA4106D4
:1008F80018BF52EA4306D1D181EA030101F0004151
:100908004FF0000070BD50EA410606BF1046194678
:1009180052EA430619D094EA0C0F02D150EA013684
:1009280013D195EA0C0F05D152EA03361CBF1046C5
:1009380019460AD181EA030101F0004141F0FE4164
:1009480041F470014FF0000070BD41F0FE4141F4E8
:10095800780170BD70B54FF0FF0C4CF4E06C1CEAE8
:1009680011541DBF1CEA135594EA0C0F95EA0C0F9D
:1009780000F0A7F8A4EB050481EA030E52EA033558
:100988004FEA013100F088804FEA03334FF0805579
:1009980045EA131343EA12634FEA022245EA1115A6
:1009A80045EA10654FEA00260EF000419D4208BF57
:1009B800964244F1FD0404F5407402D25B084FEA04
:1009C8003202B61A65EB03055B084FEA32024FF4B0
:1009D80080104FF4002CB6EB020E75EB030E22BF0D
:1009E800B61A754640EA0C005B084FEA3202B6EBCD
:1009F800020E75EB030E22BFB61A754640EA5C007C
:100A08005B084FEA3202B6EB020E75EB030E22BF0B
:100A1800B61A754640EA9C005B084FEA3202B6EB0C
:100A2800020E75EB030E22BFB61A754640EADC00CB
:100A380055EA060E18D04FEA051545EA16754FEA2D
:100A480006164FEAC30343EA52734FEAC2025FEA4B
:100A58001C1CC0D111F4801F0BD141EA00014FF0DA
:100A680000004FF0004CB6E711F4801F04BF0143AB
:100A78000020B4F1FD0C88BFBCF5E06F3FF6AFAEC7
:100A8800B5EB030C04BFB6EB020C5FEA500C50F157
:100A9800000041EB045170BD0EF0004E4EEA1131DA
:100AA80014EB5C04C2BFD4EB0C0541EA045170BDE1
:100AB80041F480114FF0000E013C90E645EA060E25
:100AC8008DE60CEA135594EA0C0F08BF95EA0C0F53
:100AD8003FF43BAF94EA0C0F0AD150EA01347FF49B
:100AE80034AF95EA0C0F7FF425AF104619462CE772
:100AF80095EA0C0F06D152EA03353FF4FDAE1046D5
:100B0800194622E750EA410618BF52EA43067FF425
:100B1800C5AE50EA41047FF40DAF52EA43057FF4B5
:100B2800EBAE12E74FF0FF3C06E000BF4FF0010CC0
:100B380002E000BF4FF0010C4DF804CD4FEA410C24
:100B48007FEA6C5C4FEA430C18BF7FEA6C5C1BD0F1
:100B580001B050EA410C0CBF52EA430C91EA030F72
:100B680002BF90EA020F0020704710F1000F91EACF
:100B7800030F58BF994208BF90422CBFD8176FEA9D
:100B8800E37040F0010070474FEA410C7FEA6C5C6B
:100B980002D150EA013C07D14FEA430C7FEA6C5C72
:100BA800D6D152EA033CD3D05DF8040B704700BF9E
:100BB8008446104662468C461946634600E000BFEC
:100BC80001B5FFF7B7FF002848BF10F1000F01BDBE
:100BD8004DF808EDFFF7F4FF0CBF012000205DF889
:100BE80008FB00BF4DF808EDFFF7EAFF34BF01200E
:100BF80000205DF808FB00BF4DF808EDFFF7E0FFA7
:100C080094BF012000205DF808FB00BF4DF808EDF7
:100C1800FFF7CEFF94BF012000205DF808FB00BF5E
:100C28004DF808EDFFF7C4FF34BF012000205DF840
:100C380008FB00BF4FEA410C7FEA6C5C02D150EA26
:100C4800013C0AD14FEA430C7FEA6C5C02D152EABC
:100C5800033C02D14FF0000070474FF0010070478D
:100C68004A0011D212F5001211D20DD56FF4787323
:100C7800B3EB62520ED44FEAC12343F0004343EA78
:100C8800505323FA02F070474FF00000704750EAC3
:100C9800013002D14FF0FF3070474FF0000070472D
:100CA80080F0004002E000BF81F0004142001FBF19
:100CB8005FEA410392EA030F7FEA226C7FEA236C22
:100CC8006AD04FEA1262D2EB1363C1BFD218414017
:100CD80048404140B8BF5B42192B88BF704710F0AD
:100CE800004F40F4000020F07F4018BF404211F050
:100CF800004F41F4000121F07F4118BF494292EAB8
:100D0800030F3FD0A2F1010241FA03FC10EB0C00E3
:100D1800C3F1200301FA03F100F0004302D5494270
:100D280060EB4000B0F5000F13D3B0F1807F06D31D
:100D380040084FEA310102F10102FE2A51D2B1F115
:100D4800004F40EBC25008BF20F0010040EA03000A
:100D58007047490040EB0000013A28BFB0F5000F8A
:100D6800EDD2B0FA80FCACF1080CB2EB0C0200FA40
:100D78000CF0AABF00EBC25052421843BCBFD0408F
:100D88001843704792F0000F81F4000106BF80F409
:100D980000000132013BB5E74FEA41037FEA226CCC
:100DA80018BF7FEA236C21D092EA030F04D092F097
:100DB800000F08BF0846704790EA010F1CBF0020CB
:100DC800704712F07F4F04D1400028BF40F0004028
:100DD800704712F100723CBF00F50000704700F048
:100DE800004343F0FE4040F4000070477FEA22626F
:100DF80016BF08467FEA23630146420206BF5FEA40
:100E0800412390EA010F40F4800070474FF000033F
:100E180004E000BF10F0004348BF40425FEA000C06
:100E280008BF704743F0964301464FF000001CE0AE
:100E380050EA010208BF70474FF000030AE000BF04
:100E480050EA010208BF704711F0004302D5404242
:100E580061EB41015FEA010C02BF844601460020B4
:100E680043F0B64308BFA3F18053A3F50003BCFACF
:100E78008CF2083AA3EBC25310DB01FA02FC63447C
:100E880000FA02FCC2F12002BCF1004F20FA02F283
:100E980043EB020008BF20F00100704702F1200276
:100EA80001FA02FCC2F1200250EA4C0021FA02F2D7
:100EB80043EB020008BF20EADC70704742000ED204
:100EC800B2F1FE4F0BD34FF09E03B3EB126209D47D
:100ED8004FEA002343F0004323FA02F070474FF033
:100EE8000000704712F1610F01D1420202D14FF0A8
:100EF800FF3070474FF00000704700BF08B500F0A2
:100F0800BFFD00F01BFE01F0C1FB01F07BFD4FF4BB
:100F1800967000F0F3FD01F0F1FA41F61F416320ED
:100F280001F07AFC41F61F41132001F0CFFC09F0D3
:100F3800CBFF03F075FD07F0ADFC09F0E1F809F00F
:100F4800F3FE03F0A5FC03F003FD0AF0C7FF08BD9C
:100F580008B5FFF7D3FF7A2000F01CFB10B903F0A7
:100F68007BFDFCE700F030FB03F0DCFBF7E77047A4
:100F7800FEE7FEE7FEE7FEE77047704770477047F9
:100F880082B00023019300932C4A136843F4803302
:100F980013602A4B1B6803F400330093019B013351
:100FA8000193009B1BB9019BB3F5A06FF1D1234BB3
:100FB8001B6813F4003F06D001230093009B012B0C
:100FC80004D002B0704700230093F7E71C4B1A685F
:100FD80042F010021A601A6822F003021A601A68B6
:100FE80042F002021A60A3F580535A685A605A68A0
:100FF8005A605A6842F480625A605A6822F47C1235
:101008005A605A6842F4E8125A601A6842F08072CC
:101018001A600A4B1B6813F0007FFAD0074B5A6816
:1010280022F003025A605A6842F002025A60034BE7
:101038005B6803F00C03082BF9D1C2E700100240EB
:101048000020024008B5FFF79BFF08BD08B5104B0C
:101058001A6842F001021A6059680E4A0A405A603A
:101068001A6822F0847222F480321A601A6822F414
:1010780080221A605A6822F4FE025A604FF41F0256
:101088009A60FFF7DFFF044B4FF000629A6008BDDB
:10109800001002400000FFF800ED00E008B5154B15
:1010A800984206D0144B98420ED0144B984216D052
:1010B80008BD01214FF4007000F050FA00214FF4F0
:1010C800007000F04BFAF3E701214FF4806000F064
:1010D80045FA00214FF4806000F040FAE8E701216A
:1010E8004FF4004000F03AFA00214FF4004000F0BD
:1010F80035FADDE70024014000280140003C0140AA
:1011080010B4426822F4702222F480720B6891F8BD
:1011180004C043EA0C231343436083680A4A1A4015
:10112800CB688C68234391F805C043EA4C0313430A
:101138008360C36A23F470030A7C013AD2B243EA9B
:101148000253C36210BC7047FDF7F1FF21B18368F9
:1011580043F0010383607047836823F001038360D1
:10116800704721B1836843F4807383607047836854
:1011780023F4807383607047836843F008038360B7
:101188007047836813F0080F01D0012070470020D2
:101198007047836843F0040383607047836813F0E3
:1011A800040F01D0012070470020704710B50929AD
:1011B8001DD9C468A1F10A0C0CEB4C0C4FF0070EBA
:1011C8000EFA0CFE24EA0E0403FA0CF32343C36060
:1011D800062A1BD8436B013A02EB82021F24944073
:1011E80023EA040301FA02F21A43426310BD0469B8
:1011F80001EB410E4FF0070C0CFA0EFC24EA0C0C24
:1012080003FA0EF34CEA03030361E1E70C2A0CD856
:10121800036B073A02EB82021F24944023EA04037B
:1012280001FA02F21A430263E0E7C36A0D3A02EBDD
:1012380082021F24944023EA040301FA02F21A43AB
:10124800C262D3E721B1836843F480138360704797
:10125800836823F4801383607047000040F0BF6008
:1012680040F40030014BD860704700BF00ED00E04B
:10127800C378FBB1154BDA68D243C2F30222C2F13C
:10128800040C0F2323FA02F2417801FA0CF1837857
:1012980013400B431B010278DBB20D490A4482F864
:1012A8000033037803F01F005B090122824041F8F4
:1012B80023207047037803F01F015B0901228A404D
:1012C8002033034941F82320704700BF00ED00E0B8
:1012D80000E100E0042806D04FF0E022136923F073
:1012E8000403136170474FF0E022136943F00403CD
:1012F8001361704730B5CB7803F00F02964613F0B0
:10130800100F03D091F802E04EEA020E0B7803B3F7
:101318000468002301E042610133072B18D8012239
:101328009A40B1F800C032EA0C05F5D14FEA830CB7
:101338000F2505FA0CF524EA05040EFA0CFC4CEA14
:101348000404CD78282DE6D0482DE5D10261E3E7E5
:1013580004600B88FF2B25D94468002303E0CD786F
:10136800482D1CD00133072B1BD803F1080C012290
:1013780002FA0CF2B1F800C032EA0C05F2D14FEAD9
:10138800830C0F2505FA0CF524EA05040EFA0CFC6B
:101398004CEA0404CD78282DE1D14261DFE70261EF
:1013A800E0E7446030BD8368194201D001207047EE
:1013B80000207047016170474161704710B50028EF
:1013C80016DB1C4B5B68C0F303421FFA80FE00F477
:1013D800401CBCF5401F0ED010F4801F1DD04FF0EC
:1013E800030C0CFA02F223EA020343F0706309E0EB
:1013F800104BDB69E7E723F070630E4C626822F05C
:101408007062626021B1420D12010EFA02F21343BA
:1014180000280BDB074A536010BD420D12010EFA7B
:1014280002F223EA020343F07063EBE7014AD36157
:10143800F2E700BF00000140034A536823F4404329
:1014480003435360704700BF0010024010B4294B9B
:101458005B6803F00C03042B2BD0082B2CD013B1A2
:10146800254B036001E0244B036022494B68C3F31A
:101478000313224CE35CDAB20368D34043604A6842
:10148800C2F30222A25CD2B223FA02F282604A6854
:10149800C2F3C222A25CD2B2D340C3604A68C2F38C
:1014A800813217498A5CD2B2B3FBF2F3036110BCF4
:1014B8007047114B0360D8E70E4A53685268C3F36C
:1014C8008343023312F4803F04D10E4A02FB03F334
:1014D8000360CAE7074A526812F4003F04D0094A79
:1014E80002FB03F30360C0E7034A02FB03F3036054
:1014F800BBE700BF0010024000127A00080000207D
:101508000400002000093D0021B1054A5369184331
:1015180050617047024A536923EA000050617047DE
:101528000010024021B1054A936918439061704741
:10153800024A936923EA0000906170470010024054
:1015480021B1054AD3691843D0617047024AD3696B
:1015580023EA0000D06170470010024021B1054A1B
:10156800D3681843D0607047024AD36823EA000062
:10157800D06070470010024021B1054A1369184332
:1015880010617047024A136923EA0000106170472E
:10159800001002404309012B0CD0022B0DD0094B3F
:1015A8005B6A00F01F0023FA00F010F0010F07D06B
:1015B80001207047034B1B68F3E7024B1B6AF0E7F7
:1015C8000020704700100240024A536A43F08073BB
:1015D800536270470010024008B5234B98420CD064
:1015E800224B984214D0224B98421CD0214B98424F
:1015F80024D0214B98422CD008BD01214FF48040C3
:10160800FFF7ACFF00214FF48040FFF7A7FFF3E797
:1016180001214FF40030FFF7AFFF00214FF40030F5
:10162800FFF7AAFFE8E701214FF48020FFF7A4FFA6
:1016380000214FF48020FFF79FFFDDE701214FF4E1
:101648000020FFF799FF00214FF40020FFF794FFD7
:10165800D2E701214FF48010FFF78EFF00214FF4ED
:101668008010FFF789FFC7E70038014000440040B9
:1016780000480040004C00400050004030B587B0A2
:1016880004460D46038A9BB2CA8823F44053134389
:10169800038283899BB2898828896A8901430A431E
:1016A80023F4B05323F00C031343A381A38A9BB202
:1016B800AA8923F440731343A38201A8FFF7C6FE47
:1016C8001D4B9C4224D0039BA28912F4004F21D1C8
:1016D80003EB830303EB83032A689200B3FBF2F363
:1016E800164AA2FB031252091101642002FB1033AF
:1016F800A28912F4004F16D11B0132330F4AA2FB04
:101708000323C3F343130B439BB2238107B030BDBC
:10171800049BD9E703EB830303EB83032A68520096
:10172800B3FBF2F3DCE7DB003233044AA2FB03230A
:10173800C3F342130B43E7E7003801401F85EB5121
:1017480029B183899BB243F400538381704783890D
:101758009BB223F400539BB283817047C1F3421CB0
:1017680001F01F01012303FA01F19C4508D0BCF1E7
:10177800020F07D014303AB103681943016070476B
:101788000C30F8E71030F6E7036823EA010101603E
:10179800704722B1838A9BB2194381827047838A3A
:1017A800C94389B2194081827047000003889BB2FF
:1017B800214A904212D002F5006290420ED0B0F158
:1017C800804F0BD0A2F59832904207D002F5806284
:1017D800904203D002F58062904203D123F0700357
:1017E8004A881343154A904208D002F58062904215
:1017F80004D023F440739BB2CA88134303808B88B8
:1018080083850B8803850C4B98420FD003F5006342
:1018180098420BD003F54063984207D003F58063E4
:10182800984203D003F58063984201D10B7A03866E
:1018380001238382704700BF002C01400010004044
:101848004FF6FF73838000230380C38043800372B5
:10185800704729B103889BB243F0010303807047A6
:1018680003889BB223F001039BB20380704722B127
:1018780083899BB21943818170478389C94389B29F
:1018880019408181704783889BB223F070039BB213
:10189800838083889BB20B4383807047C94389B296
:1018A80001827047C94389B201827047036823F0F7
:1018B80001031B041B0C0360002303604360836067
:1018C800C360364B984221D0354B984224D0354BD3
:1018D800984227D0344B98422AD0344B98422DD086
:1018E800334B984230D0334B984233D0324B9842E6
:1018F80036D0324B984239D0314B98423CD0314B9C
:1019080098423FD0304B984242D070472F4A536894
:1019180043F00F03536070472C4A536843F0F003B9
:1019280053607047294A536843F4706353607047A3
:10193800264A536843F4704353607047234A5368F8
:1019480043F4702353607047204A536843F470038C
:10195800536070471D4A536843F070635360704783
:101968001B4A536843F00F0353607047184A536883
:1019780043F0F00353607047154A536843F47063AB
:1019880053607047124A536843F47043536070477A
:101998000F4A536843F470235360B6E708000240C7
:1019A8001C0002403000024044000240580002403F
:1019B8006C00024080000240080402401C040240FF
:1019C800300402404404024058040240000002402F
:1019D8000004024010B4026822F4FF4222F07002B0
:1019E8008B680C6A23430C6923434C6923438C6935
:1019F8002343CC6923434C6A23438C6A2343134310
:101A08000360CB6843600B6883604B68C36010BC9D
:101A1800704721B1036843F001030360704703680E
:101A280023F001031B041B0C036070471AB1036801
:101A3800194301607047036823EA01010160704798
:101A480010F0805F05D0054B1B68034204D00120CD
:101A58007047034B1B68F8E70020704700040240FA
:101A68000000024010F0805F02D0034B58607047BE
:101A7800024B5860704700BF00040240000002405B
:101A880008B56FF00400FFF725FC084B1B68084AEF
:101A9800A2FB0323C3F34753064A1370C3EB431255
:101AA80003EB8203DA00044B1A8008BD0000002013
:101AB80083DE1B43D6000020D40000200E4B1B7889
:101AC80003FB00F04FF0E023586100229A611A6985
:101AD80042F001021A614FF0E0231B6903F0011381
:101AE800012BF8D04FF0E0231A6922F001021A61A5
:101AF80000229A61704700BFD60000200E4B1B8859
:101B080003FB00F04FF0E023586100229A611A6944
:101B180042F001021A614FF0E0231B6903F0011340
:101B2800012BF8D04FF0E0231A6922F001021A6164
:101B380000229A61704700BFD400002008B54FF416
:101B4800A060FFF78BFB08BD174B1B8813F0100F25
:101B58001FD0154B1A889B88144BDA6D92B2144B20
:101B68009B899BB2934215D9114B9B899BB29B1AB7
:101B78009BB20F498A81CA8892B213449BB2CB8028
:101B8800CB889BB24A89B3FBF2F002FB10339BB2BD
:101B9800CB807047064B9B899BB29B1A9BB203F57F
:101BA80096739BB2E5E700BF003801400000024091
:101BB800802F002008B5094B1B6813F4005F09D17A
:101BC800064B5A6842F400525A605A6C22F00102DD
:101BD8005A6408BD024809F0E6FFF1E70000024038
:101BE800802F002038B505460C4600210548FFF730
:101BF80010FF054B1D659C645A6C42F001025A6443
:101C080038BD00BF440002400000024070B586B0F5
:101C1800012144F20400FFF785FC284D2846FFF710
:101C2800DBFC4FF40073ADF8143003238DF8163045
:101C380018238DF81730224C05A92046FFF75AFBC8
:101C48004FF48063ADF8143004238DF8173005A9DC
:101C58002046FFF74FFB25238DF8003000248DF830
:101C6800014001268DF802608DF803606846FFF791
:101C7800FFFA4FF416530193ADF80840ADF80A4047
:101C8800ADF80C40ADF810400C23ADF80E3001A9AA
:101C98002846FFF7F3FC224640F226612846FFF764
:101CA8005DFD324640F224412846FFF757FD314694
:101CB8002846FFF745FD06B070BD00BF003801405B
:101CC800000801402DE9F0478CB001210846FFF7D4
:101CD8001BFC324E3046FFF7E9FDDFF8C4A0CDF813
:101CE80004A00024029410230393049405944FF055
:101CF8008008CDF818800794089409944FF400538D
:101D08000A930B9401A93046FFF764FEDFF894901C
:101D1800012241464846FFF73CFD0E238DF800306E
:101D28008DF8014002278DF8027001258DF80350C7
:101D38006846FFF79DFA2A4639463046FFF776FE91
:101D480014363046FFF7B2FDCDF804A0164B1B69D8
:101D5800029303944FF4967304930594CDF8188076
:101D680007940894202309934FF440530A930B9443
:101D780001A93046FFF72EFE224639463046FFF7C6
:101D880055FE29463046FFF744FE2A46402148467C
:101D9800FFF7FFFC0CB0BDE8F08700BF440002402D
:101DA8000438014000380140802F0020174B1B8861
:101DB80013F0100F1FD0154B1A889B88144B1A6FFD
:101DC80092B2144B9B899BB2934215D9114B9B89B4
:101DD8009BB29B1A9BB20F498A81CA8892B213445C
:101DE8009BB2CB80CB889BB24A89B3FBF2F002FB53
:101DF80010339BB2CB807047064B9B899BB29B1AD2
:101E08009BB203F21A439BB2E5E700BF00440040CF
:101E1800000002400831002008B50A4B1B6813F087
:101E2800007F0BD1074B5A6842F000725A60D3F812
:101E3800802022F00102C3F8802008BD024809F082
:101E4800B2FEEFE7000002400831002038B5054631
:101E58000C4600210748FFF7DCFD074BC3F88C5000
:101E6800C3F88440D3F8802042F00102C3F88020F0
:101E780038BD00BF800002400000024070B586B047
:101E880001214FF40030FFF75BFB01210420FFF72D
:101E980049FB274D2846FFF79FFB0426ADF8146041
:101EA80003238DF8163018238DF81730214C05A917
:101EB8002046FFF71FFA0823ADF814308DF8176095
:101EC80005A92046FFF716FA26238DF800300024CE
:101ED8008DF8014002238DF8023001268DF8036049
:101EE8006846FFF7C5F94FF4E1330193ADF80840B0
:101EF800ADF80A40ADF80C40ADF810400C23ADF831
:101F08000E3001A92846FFF7B9FB224640F22661A8
:101F18002846FFF723FC324640F224412846FFF7C3
:101F28001DFC31462846FFF70BFC06B070BD00BF0C
:101F380000440040000801402DE9F0478CB0012121
:101F48000846FFF7E1FA324E3046FFF7AFFCDFF8FC
:101F5800C4A0CDF804A00024029410230393049491
:101F680005944FF08008CDF81880079408940994D8
:101F78004FF400530A930B9401A93046FFF72AFD4A
:101F8800DFF89490012241464846FFF702FC1123EE
:101F98008DF800308DF8014002278DF80270012578
:101FA8008DF803506846FFF763F92A4639463046EC
:101FB800FFF73CFD143E3046FFF778FCCDF804A04F
:101FC800164B1B690293039440F21A430493059439
:101FD800CDF8188007940894202309934FF44053B0
:101FE8000A930B9401A93046FFF7F4FC22463946C0
:101FF8003046FFF71BFD29463046FFF70AFD2A4603
:1020080040214846FFF7C5FB0CB0BDE8F08700BF8C
:102018008000024004440040004400400831002091
:10202800174B1B8813F0100F1FD0154B1A889B886D
:10203800144B5A6B92B2144B9B899BB2934215D99D
:10204800114B9B899BB29B1A9BB20F498A81CA8804
:1020580092B213449BB2CB80CB889BB24A89B3FB24
:10206800F2F002FB10339BB2CB807047064B9B8982
:102078009BB29B1A9BB203F596739BB2E5E700BF30
:1020880000480040000002403033002008B5094BEA
:102098001B6813F0200F09D1064B5A6842F0200242
:1020A8005A60DA6922F00102DA6108BD024809F0D3
:1020B8007AFDF1E7000002403033002038B50546CC
:1020C8000C4600210548FFF7A4FC054B9D621C62E5
:1020D800DA6942F00102DA6138BD00BF1C00024033
:1020E8000000024070B586B001214FF48020FFF750
:1020F80027FA01212120FFF715FA01212948FFF7C6
:102108005DF9294D2846FFF767FA4FF48073ADF85B
:10211800143003238DF8163018238DF81730234C0C
:1021280005A92046FFF7E6F84FF40073ADF8143020
:1021380004238DF8173005A92046FFF7DBF827237D
:102148008DF8003000248DF8014002238DF802300C
:1021580001268DF803606846FFF78AF84FF4165396
:102168000193ADF80840ADF80A40ADF80C40ADF861
:1021780010400C23ADF80E3001A92846FFF77EFA6F
:10218800224640F226612846FFF7E8FA324640F236
:1021980024412846FFF7E2FA31462846FFF7D0FAED
:1021A80006B070BD30001400004800400014014023
:1021B8002DE9F0478CB001210846FFF7A5F9324E0A
:1021C8003046FFF773FBDFF8C4A0CDF804A0002465
:1021D800029410230393049405944FF08008CDF8DB
:1021E80018800794089409944FF400530A930B94A9
:1021F80001A93046FFF7EEFBDFF894900122414633
:102208004846FFF7C6FA0C238DF800308DF80140D8
:1022180002278DF8027001258DF803506846FFF7F4
:1022280027F82A4639463046FFF700FC1436304670
:10223800FFF73CFBCDF804A0164B1B6902930394EF
:102248004FF4967304930594CDF818800794089476
:10225800202309934FF440530A930B9401A9304665
:10226800FFF7B8FB224639463046FFF7DFFB294621
:102278003046FFF7CEFB2A4640214846FFF789FA49
:102288000CB0BDE8F08700BF1C00024004480040C5
:102298000048004030330020164B1B8813F0100F05
:1022A8001FD0144B1A889B88134B5A6B92B2134B4E
:1022B8009B899BB2934215D9104B9B899BB29B1A61
:1022C8009BB20E498A81CA8892B213449BB2CB80D2
:1022D800CB889BB24A89B3FBF2F002FB10339BB266
:1022E800CB807047054B9B899BB29B1A9BB264338A
:1022F8009BB2E6E7004C004000040240B8340020DE
:1023080008B5094B1B6813F4003F09D1064B5A68FE
:1023180042F400325A609A6D22F001029A6508BDB3
:10232800024809F040FCF1E700040240B8340020FC
:1023380038B505460C4600210548FFF76AFB054BF2
:102348005D66DC659A6D42F001029A6538BD00BF92
:10235800580402400004024070B586B001214FF4D1
:102368000020FFF7EDF801211020FFF7DBF8284DDA
:102378002846FFF731F94FF48063ADF81430032392
:102388008DF8163018238DF81730224C05A92046F1
:10239800FEF7B0FF4FF40063ADF8143004238DF856
:1023A800173005A92046FEF7A5FF34238DF8003025
:1023B80000248DF8014002238DF8023001268DF8A3
:1023C80003606846FEF754FF4FF416530193ADF8C7
:1023D8000840ADF80A40ADF80C40ADF810400C23A9
:1023E800ADF80E3001A92846FFF748F9224640F219
:1023F80026612846FFF7B2F9324640F224412846C2
:10240800FFF7ACF931462846FFF79AF906B070BDD8
:10241800004C0040001001402DE9F0478CB001212C
:102428000220FFF771F8314E3046FFF73FFADFF828
:10243800C0A0CDF804A000240294102303930494B0
:1024480005944FF08008CDF81880079408940994F3
:102458004FF400530A930B9401A93046FFF7BAFAD8
:10246800DFF89090012241464846FFF792F93B2356
:102478008DF800308DF8014002278DF80270012593
:102488008DF803506846FEF7F3FE2A463946304673
:10249800FFF7CCFA283E3046FFF708FACDF804A03B
:1024A800154B1B6902930394642304930594CDF898
:1024B800188007940894202309934FF440530A93F3
:1024C8000B9401A93046FFF785FA22463946304673
:1024D800FFF7ACFA29463046FFF79BFA2A46402117
:1024E8004846FFF756F90CB0BDE8F087580402409B
:1024F800044C0040004C0040B834002008B508F0F7
:10250800C9FFFFF783FBFFF7DDFB09F041F8FFF791
:10251800B5FCFFF711FD09F0B9F8FFF7E3FDFFF788
:1025280047FE09F033F9FFF717FFFFF775FF08BDFE
:1025380000B5FF2296460AE010F8013B5340084ACE
:10254800D25C82EA0E02074911F803E061464B1E8D
:102558001FFA83FC0029EFD142EA0E205DF804FB44
:10256800B8CC0008B8CD00082DE9F04182B00121AF
:102578003C20FEF7D7FF3823ADF8043004248DF84B
:1025880007403E4F0DEB04013846FEF7B3FE8023AB
:10259800ADF804308DF80740394E0DEB0401304694
:1025A800FEF7A8FE4FF44078ADF8048010258DF8AA
:1025B800075003248DF8064001A93846FEF79AFE15
:1025C80041463846FEF7F8FE4FF40067ADF8047050
:1025D8008DF807508DF8064001A93046FEF78AFEAF
:1025E80039463046FEF7E8FE4FF48078ADF80480AF
:1025F8008DF807508DF8064007F1804707F58437B6
:1026080001A93846FEF776FE41463846FEF7D4FE65
:10261800ADF804408DF807508DF80640DFF8648067
:1026280001A94046FEF766FE21464046FEF7C4FE75
:102638004FF40047ADF804708DF807508DF8064048
:1026480001A94046FEF756FE39464046FEF7B2FE5F
:10265800ADF804708DF807508DF8064001A9304692
:10266800FEF748FE39463046FEF7A6FE064B012225
:10267800C3F8A02102B0BDE8F08100BF000C014002
:102688000014014000080140008021422DE9F04774
:1026980082B001217C20FEF745FF01210846FEF7A4
:1026A80041FF01215048FEF789FE504A536823F044
:1026B800200353604FF40043ADF8043004278DF82D
:1026C80007704B4D0DEB07012846FEF713FE4FF43C
:1026D8008063ADF804308DF80770DFF818910DEBC2
:1026E80007014846FEF706FE4FF0E00AADF804A0E1
:1026F80010248DF8074003268DF80660DFF8F8806F
:102708000DEB07014046FEF7F5FD51464046FEF742
:1027180053FE80214046FEF74DFE2023ADF80430DD
:102728008DF807700DEB07013448FEF7E3FDADF8AF
:1027380004408DF807700DEB07014046FEF7DAFDFF
:10274800ADF804708DF807408DF806600DEB0701B1
:102758002846FEF7CFFD39462846FEF72BFE4FF4F4
:102768000067ADF804708DF807408DF8066001A980
:102778004846FEF7BFFD39464846FEF71BFE4FF4B4
:102788000057ADF804708DF807408DF8066001A970
:102798002846FEF7AFFD39462846FEF70BFE4FF4F4
:1027A8008078ADF804808DF807408DF8066007F151
:1027B800804707F5704701A93846FEF79BFD41465B
:1027C8003846FEF7F9FDADF804408DF807408DF85E
:1027D800066001A92846FEF78DFD21462846FEF72A
:1027E800E9FD02B0BDE8F08700023000002004E0F7
:1027F80000180140000C014000080140001401408D
:10280800014B1878704700BFD7000020014B002209
:102818001A707047D700002030B585B005460C46C1
:1028280001210846FEF78CFE01A8FFF709F8ADF86C
:102838000850ADF804400024ADF80A40ADF8064051
:1028480001A94FF08040FEF7B1FF21464FF08040CC
:10285800FEF7FFFF01214FF08040FFF723F8012129
:102868004FF08040FFF71AF8012211464FF08040E0
:10287800FEF7FDFF1C238DF800308DF8014003237F
:102888008DF8023001238DF803306846FEF7F0FC1E
:102898004FF0804213889BB243F00103138005B0C8
:1028A80030BD00004FF080431B8A13F0010F02D0A7
:1028B800054B01221A704FF08042138A9BB223F015
:1028C80001039BB213827047D700002030B585B052
:1028D80005460C4601210220FEF732FEADF80850ED
:1028E800ADF804400025ADF80A50ADF806500B4C81
:1028F80001A92046FEF75AFF29462046FEF7A9FF00
:1029080001212046FEF7CAFF20212046FEF7BBFF23
:1029180029462046FEF79DFF05B030BD0004004063
:10292800044A138A138A9BB223F001039BB21382D1
:10293800704700BF000400400A4B1B8A13F0010FC8
:1029480008D0084A13889BB223F001039BB2138076
:1029580000239384034A138A9BB223F001039BB29A
:102968001382704700080040044A138A138A9BB2F6
:1029780023F001039BB21382704700BF000C004094
:10298800044A138A138A9BB223F001039BB2138271
:10299800704700BF001000400A4B1B8A13F0010F5C
:1029A80008D0084A13889BB223F001039BB2138016
:1029B80000239384034A138A9BB223F001039BB23A
:1029C8001382704700140040002303E00022C25421
:1029D80001339BB28B42F9D370470146002008E0CF
:1029E80000EB8000420092B213449BB2303B98B295
:1029F80001310B78232B04D0A3F13002D2B2092A7B
:102A0800EED9704708B500230E4A13800E4A53705A
:102A180013709370D370137153719371D3711372D0
:102A2800537202210948FFF7CFFF094B0949196082
:102A38004FF400429A80084B19609A80FFF794FD82
:102A480008BD00BFDA00002018010020E8000020BF
:102A5800EC00002000080140F40000200023044A94
:102A6800C2F8A03102F50042C2F8AC31704700BF8D
:102A78000000224208B50E2819D00DD8052802D822
:102A8800042802D208BD0B28FCD1FFF7E7FF0B4B47
:102A98000122C3F8A021F5E7F028F3D10023074A63
:102AA800C2F8A03102F50042C2F8AC31EAE7FFF7FC
:102AB800D5FF034B0122C3F8AC21E3E70000224213
:102AC8000080224204380F2812D8DFE800F00808F6
:102AD8001111111111080D110D110D110808054BD7
:102AE8000122C3F8A0217047034B0122C3F8AC218F
:102AF800704700BF00002242008022420FB400B598
:102B080083B004AB53F8041B019301AA002009F019
:102B1800EFFA03B05DF804EB04B0704708B51F4B3B
:102B28009B7883B11E4BD3F82831DBB91D4BDB787A
:102B380033B91C4A53780133DBB25370092B03D8DD
:102B4800184B00221A7008BD134600225A709A705A
:102B58000122DA701A7102225A7113491348FFF7D9
:102B6800CDFFEDE70F4B9B7833B90E4A137801334D
:102B7800DBB21370042B03D80A4B00225A70E2E729
:102B8800134600221A70DA7001229A701A715A716B
:102B980005490748FFF7B2FFEEE700BF2C01002008
:102BA80000802142340100201C000020B8CE00081B
:102BB800C8CE000800B585B0074B1B788DF80F30DC
:102BC8000DF10F030093012302220321034808F0AB
:102BD800C9FE05B05DF804FB68010020083100203B
:102BE800134AD2F8AC31DB43C2F8AC31114BDB7B72
:102BF800012B00D070470F4B1B7C002BFAD110B56E
:102C080082B00C4C04F10803009304230122102124
:102C1800094808F0A7FEA37AE27A01920093637A42
:102C2800227A06490648FFF769FF02B010BD00BFC7
:102C38000080214244010020083100201C000020AF
:102C4800D8CE00080023054A05E012F8010B044914
:102C5800C8540133DBB20B2BF7D97047E8F7FF1FD5
:102C680058010020104B1B7B03B1704710B50E4C68
:102C7800A38883F4BB4383F02803A380DB439BB280
:102C8800A3802268110A217262721A0AA272E37280
:102C9800042104F10800FFF74BFCE08001232373B3
:102CA800E3730023237410BD4401002008B50378A2
:102CB800427802EB032292B20A4BDB8893420CD093
:102CC800084B997B0131997301215973054B9B7B03
:102CD80005490648FFF712FF08BD024B002199730A
:102CE8005973F3E7440100201C000020F8CE0008C7
:102CF80010B584B004460023ADF80C300379042BDA
:102D080006D0052B4AD00B2B00F08E8004B010BDE6
:102D1800754B9988186802F09BFC58B100238DF810
:102D28000C3003AB009301231A4606216F4808F0C4
:102D380019FEEBE76C4803230093002301228188E6
:102D4800006802F08DFD6A4B1B785C2B05D0664B42
:102D58009988186802F0D2FDA0B1664B5C221A70FF
:102D680062795A7022799A705F480323019300238D
:102D7800009301228188006802F044FF01238DF846
:102D88000C30CEE700238DF80C3003AB0093012301
:102D98001A460621554808F0E5FDB7E7564B9988CD
:102DA800186802F055FC58B100238DF80C3003ABBD
:102DB800009301231A4606214C4808F0D3FDA5E7E5
:102DC8004D4803230093002301228188006802F004
:102DD80047FD474B1B785C2B05D0474B99881868F3
:102DE80002F08CFDA0B1434B5C221A7062795A70D4
:102DF80022799A704048032301930023009301220B
:102E08008188006802F0FEFE01238DF80C30CEE7C1
:102E180000238DF80C3003AB009301231A460621DA
:102E2800324808F09FFD71E7334B9988186802F023
:102E38000FFC00284BD16379012B09D0022B32D02B
:102E4800032B34D0042B06D114238DF80D3002E067
:102E58000B238DF80D30284803230093002301220B
:102E68008188006802F0FCFC214B1B785C2B05D0A4
:102E7800214B9988186802F041FDE0B11D4B5C2296
:102E88001A709DF80D205A709A701B4803230193FD
:102E98000023009301228188006802F0B3FE012319
:102EA8008DF80C3016E012238DF80D30D3E713237C
:102EB8008DF80D30CFE700238DF80C3003AB00936D
:102EC80001231A460621094808F04CFD1EE7002395
:102ED8008DF80C3003AB009301231A4606210348F2
:102EE80008F040FD12E700BFF40000200831002080
:102EF8008C01002040000020EC00002030B587B095
:102F08000446002303930493CDF813300379012B6F
:102F180022D043790C2B00F005810E2B00F00281A2
:102F2800102B00F0FF80042B00F01881052B00F017
:102F380024810B2B00F02781122B00F02481132B06
:102F480000F02181022B00F02D810F2B00F02D8144
:102F5800042002F02DFAF0E043790C2B26D00E2B3A
:102F680024D0102B22D0042B66D0052B00F097809C
:102F78000B2B00F0B080122B00F0AD80132B00F06B
:102F8800AA80022B00F0BF800F2B40F0D6808079FA
:102F980007F026F90023874A1380874A1380042004
:102FA80007F0BEF96279854B1A70C6E00C2B2BD05E
:102FB800A37903EB43030D338DF80C306E238DF8A2
:102FC8000D3007238DF80E30D0238DF80F300A23EB
:102FD8008DF8103001228DF811208DF81230002361
:102FE8008DF813308DF814306379102B10D003A8A6
:102FF80005F062F8724B01225A711A7162796F4BAF
:103008001A7003F0D7FD98E0012003F07DF8CFE7B0
:1030180002F0A8FFA37904338DF80C3000238DF853
:103028000E3064238DF80F30C31EDBB2012BDED8BF
:10303800012003F069F8DAE706F0B0F905F0BAFD07
:103048008DF81500831FDBB2012B1BD9A37903EB85
:10305800830310338DF80C306E238DF80D30012862
:1030680016D06E238DF80E3000238DF80F3003A88C
:1030780005F06AFE524B01225A711A7162794F4B60
:103088001A705AE0A379DB001C338DF80C30E3E7A3
:1030980032238DF80E3005238DF80F30E7E783795A
:1030A80004335B008DF80C3007238DF80D30D023E6
:1030B8008DF80E3001258DF80F500A238DF8103049
:1030C80003A805F07DFD62793C4B1A703C4B5D719D
:1030D8001D719D7031E006F061F9A37903EB83035C
:1030E80010338DF80C3001258DF80D50E0238DF844
:1030F8000E3003A805F0C0FD6279304B1A70304BD2
:103108005D711D7119E0837904338DF80C300F233C
:103118008DF80D3003A807F0BBF8294B01225A712E
:103128001A710AE0264A02215171002111710C2BF3
:1031380010D0102B0ED003F043FD23798DF80C30FE
:1031480003AB009301231A4609211E4808F00AFC24
:1031580007B030BD002002F0D7FFECE707F024FFEE
:10316800194A13889BB223F001039BB2138005F020
:103178002FFE124B00221A70DFE705F067FD104B97
:1031880000229A70D9E707F00FFF0F4A13889BB205
:1031980023F001039BB2138005F0AEFD074B00221C
:1031A8001A70CAE707F040F8C7E7052007F0B8F833
:1031B800C3E700BFE0000020D8000020DD000020A9
:1031C80034010020083100200004004000B583B01D
:1031D8001E4B01221A701E4B1B78023B112B0CD878
:1031E800DFE803F0250B282B0B0B0B0B0B2E090B21
:1031F8000931090B2E2E03F075FC164B5B7843B191
:10320800154B5A6942F0E0025A611A6942F080028D
:103218001A610023009311220221104808F0A2FB32
:103228000F491048FFF76AFC03B05DF804FB06F08D
:10323800FBFFE2E705F0CCFDDFE705F007FDDCE783
:1032480005F05AFDD9E707F057F9D6E7FC0000204A
:10325800DD000020E80000200008014008310020BF
:103268001C00002024CF000800B585B00A460023C2
:103278008DF80F3001280AD00DF10F0300930123B8
:103288000221054808F06EFB05B05DF804FB034B0E
:103298009B7B8DF80F30EFE70831002044010020B8
:1032A80000B585B000230293ADF80C308DF80E30D0
:1032B8008DF808000E4B1A788DF809205A788DF889
:1032C8000A209A788DF80B20DA788DF80C201A7974
:1032D8008DF80D205B798DF80E3002AB0093072333
:1032E8001A460121034808F03DFB05B05DF804FBD0
:1032F800000100200831002000B585B00A460023EF
:103308008DF80F300DF10F0100910146024808F0C9
:1033180029FB05B05DF804FB0831002000B58BB02F
:1033280000230393049305930693079308938DF85A
:1033380024308DF80C0006220DF10D0007F02CFF4B
:10334800122208490DF1130007F026FF03AB009382
:10335800192303220121044808F004FB0BB05DF88F
:1033680004FB00BF060100200831002030B58FB0F3
:10337800044600210391262204A809F009F82146F1
:1033880011F8014B03AD2246284607F005FF0095CA
:10339800234602220621024808F0E4FA0FB030BDA5
:1033A8000831002000B583B010F8013B00900122DD
:1033B8000721034808F0D6FA03B05DF804FB00BF04
:1033C8000831002000B585B00023ADF80C30037833
:1033D8008DF80C3043788DF80D3003AB0093022341
:1033E80003220721024808F0BDFA05B05DF804FB86
:1033F8000831002000B585B0002303930B4B1A79E0
:103408008DF80C205A798DF80D209A798DF80E20B8
:10341800DB798DF80F3003AB0093042301221146AA
:10342800034808F09FFA05B05DF804FB1801002076
:103438000831002030B593B000210391382204A848
:1034480008F0A6FF894B9869998A431813F8032C4A
:1034580013F8024C04EB0224A4B2043989B20130F7
:1034680008F040FC844239D0814B1B78002B00F0D7
:10347800378101217D4B98694278837803EB0223D9
:103488009BB240F20662934200F29180B3F5C06F9E
:103498003ED8B3F58C7F48D2B3F5807F40F21D81CA
:1034A800A3F20113162B00F21881DFE813F0EB00EA
:1034B80051018801160186028A02050388039303D5
:1034C800160116011601160116011601BC03140493
:1034D80087049A04A604B604BA04BE040021C9E706
:1034E800A3F60113102B00F2F880DFE813F02F0683
:1034F8003306370643064E0666066B067D068106CA
:10350800F600F600F600F600F600F60086069706C6
:10351800A3F20163052B00F2E080DFE813F0270532
:103528002B05660576058905990540F22222934206
:103538002CD8B3F5007F40F2D080A3F20123212BD1
:1035480000F2CB80DFE813F0750492049904C900F7
:10355800C900A004C900C900C900C900C900C90040
:10356800C900C900C900C900A704AA04C804C90041
:10357800C900E104C900C900C900C900C900C900DF
:10358800C900C900C900C900C9000A0540F20232D1
:10359800934240F0A2800379364A1370364A127873
:1035A800934240F09A80102007F0E6FD95E040F63F
:1035B8001112934223D8B3F5106F91D840F20572D7
:1035C80093420FD8B3F5E06F40F28780A3F20173FE
:1035D800042B00F28280DFE813F04B0562057105C9
:1035E8008005900540F60102934200F0AA8540F656
:1035F8000202934271D1043006F07AFE6DE042F285
:103608000202934200F046860DD942F20302934229
:1036180063D1174B1B78012B00F07586022B5CD108
:1036280003F030FD59E041F20102934200F00086B8
:1036380042F20102934250D10379012B4DD09A1ED8
:10364800D2B2012A40F2FD85042B46D1012002F0B6
:1036580083FC064B9869053003F028FD044B0222D1
:103668001A7006490648FFF749FA36E00831002083
:10367800DC00002042010020680100201C0000201E
:1036880054D10008B24B01221A70B24B00229A7032
:10369800DA7001F061FAFFF7ADFE01F0ADFA01282A
:1036A80020D002F053FC022836D0AB4B1B780C2BF1
:1036B8004AD00E2B48D0FFF789FDA74B00221A707D
:1036C800FFF7D0FAA54A9379D179019100935379FC
:1036D8001279A349A348FFF711FAA34B00221A80D5
:1036E80013B030BD01F082FA8DF80C0003AB0093E3
:1036F8000123042220219D4808F034F99C4B5A6983
:1037080042F0E0025A611A6942F020021A619449B3
:103718009848FFF7F3F9C4E704228DF80C2003ABAF
:10372800009301232021914808F01CF9904B5A6915
:1037380042F0E0025A611A6942F020021A6188498F
:103748008D48FFF7DBF9B0E7022003F0D7FCB2E7BA
:103758000379023B0E2BC0D801A252F823F000BF18
:10376800A5370008E3360008AD370008B33700086E
:10377800E3360008E3360008E3360008E3360008BD
:10378800E3360008E3360008C1370008E3360008CE
:10379800C1370008B9370008C1370008022006F011
:1037A80035FD9AE705F00AFD97E705F0EFFC94E789
:1037B800022006F0B5FD90E702F0FAFC8DE70279E9
:1037C800931E112B00F2E880DFE813F01200E600E8
:1037D8002B005500E600E600E600E600E6007F0064
:1037E800A900E600A900E600A900E6007F007F0026
:1037F8004379012B03D0022B0BD00023CDE08DF8A9
:103808000C2006225D490DF10D0007F0C5FC0723C9
:10381800C3E0062006F0FAFC51495948FFF76EF953
:103828005EE74379012B03D0022B0BD00023B4E0D1
:103838008DF80C20062251490DF10D0007F0ACFC63
:103848000723AAE005F0F8FA484B9B691B798DF825
:103858000C30062249490DF10D0007F09DFC12229B
:1038680048490DF1130007F097FC3D494648FFF71A
:1038780045F9192391E04379012B03D0022B0BD092
:1038880000238AE08DF80C2006223C490DF10D003A
:1038980007F082FC072380E005F0CEFA334B9B69E2
:1038A8001B798DF80C30062234490DF10D0007F014
:1038B80073FC122233490DF1130007F06DFC2849FF
:1038C8003248FFF71BF9192367E04379012B03D02E
:1038D800022B0BD0002360E08DF80C20062227492C
:1038E8000DF10D0007F058FC072356E005F0A4FA87
:1038F8001E4B9B691B798DF80C3006221F490DF170
:103908000D0007F049FC12221E490DF1130007F0C3
:1039180043FC13491E48FFF7F1F819233DE04379AA
:10392800012B03D0022B0BD0002336E08DF80C209E
:10393800062212490DF10D0007F02EFC07232CE09A
:10394800032003F0DBFB06491248FFF7D7F8C7E668
:10395800E80000202C010020DD00002018010020D4
:103968001C00002068CF00082A0100200831002030
:103978000008014040CF000854CF0008CCD100080F
:1039880090CF000806010020A8CF0008BCCF00088F
:10399800D0CF0008E8CF00080023B04C03AA00925B
:1039A80003220121204607F0DDFFA269AC4B127902
:1039B800AC49AD48FFF7A2F88FE6062003F09EFB5E
:1039C8008BE60279931E132B3FF687AE01A151F8BF
:1039D80023F000BF2D3A0008353A0008A13A000844
:1039E800793A00089B3A0008B13A0008E336000823
:1039F800E3360008E3360008E3360008B13A000869
:103A0800E3360008B13A0008B93A0008B13A0008AC
:103A1800E3360008E3360008E3360008573A0008A2
:103A2800A93A0008082006F0F1FB56E68DF80C20AC
:103A380000238DF80D3086238DF80E3003AB0093EC
:103A4800032306220121854807F08CFF45E68DF8FF
:103A58000C2000238DF80D308A238DF80E3003AB2F
:103A680000930323062201217C4807F07BFF34E6FC
:103A78008DF80C2013227D490DF10D0007F08CFB09
:103A880003AB0093142306220121744807F06AFF50
:103A980023E601F0E1FC20E6062001F089FC1CE6A3
:103AA800052001F085FC18E6052003F027FB14E645
:103AB800062006F035FC10E60379012B41D0022BD5
:103AC8007FF40BAE6A4B82791A70C2795A70027A07
:103AD8009A70427ADA70827A1A71C27A5A71437984
:103AE8000C2B65D00E2B63D0102B61D0043BDBB2BE
:103AF800012B3FF6F2AD002005F0CCF9012005F0CE
:103B0800C9F9564883695B798DF80C30584B1A7897
:103B18008DF80D205A788DF80E209A788DF80F20A0
:103B2800DA788DF810201A798DF811205B798DF8E4
:103B3800123003AB009307231A46012107F012FF46
:103B4800CBE543790C2B2BD00E2B29D0102B27D06B
:103B5800043BDBB2012B3FF6C0AD012005F09AF91A
:103B68003E4883695B798DF80C30414B1A788DF8A3
:103B78000D205A788DF80E209A788DF80F20DA7873
:103B88008DF810201A798DF811205B798DF8123094
:103B980003AB009307231A46012107F0E3FE9CE5D7
:103BA800042003F0ABFA2F493248FEF7A7FF94E54B
:103BB80002F008FF2B493048FEF7A0FF8DE5FFF71C
:103BC80041F82E4B00930C2308220121234807F0CB
:103BD800C9FE82E52A4B00221A802A4B1B786BB952
:103BE800284B01221A705B7843B1274B5A6942F07F
:103BF800E0025A611A6942F080021A61234B1B786D
:103C08008DF80C300DF10D0000F09AFF03AB009316
:103C1800032309220121114807F0A4FE11491C4879
:103C2800FEF76CFF59E50379013B072B0ED8DFE857
:103C380003F004313B45490D0D4D134B5A6942F0D1
:103C4800E0025A611A6942F020021A6100230093C7
:103C580010220121014807F085FE3EE508310020C9
:103C6800060100201C000020FCCF00082C000020CA
:103C78000001002014D0000838D0000858010020A6
:103C88002A010020E800002000080140FC00002074
:103C98005CD00008A14B5A6942F0E0025A611A69E7
:103CA80042F080021A61D1E79C4B5A6942F0E00267
:103CB8005A611A6942F040021A61C7E7012002F00E
:103CC80023FAC3E7002002F01FFABFE7944B012252
:103CD8005A711A71BAE700238DF80C300379132B47
:103CE80031D8DFE803F00A3030305C6530303030EE
:103CF800306542304262423065658A4B1B780C2B36
:103D080003D00E2B01D0102B02D1022003F0F6F9BC
:103D180007F04AF9844A13889BB223F001039BB247
:103D28001380824B00221A70814B5B7843B17B4B26
:103D38005A6942F0E0025A611A6942F080021A6137
:103D48007C4B00221A707C488369764C1B7923705F
:103D580003AB009301231122194607F003FE2278D2
:103D680076497748FEF7CAFEB7E40530FEF79EFFAE
:103D7800744B5B7B33B9012003F0C0F9002002F0DB
:103D8800C3F9E0E76F4B9A7B8DF80C2000221A7379
:103D9800FEF768FF69496C48FEF7B0FED3E705F007
:103DA800FDFA6A4B32221A70CDE706F01FFACAE70D
:103DB80005F0F4FA654B32221A70C4E70379644CB3
:103DC80023708DF80C3003AB00930123122219469F
:103DD800594807F0C7FD22780421012001F042FB71
:103DE8007BE400238DF80C3003AB009301231322EE
:103DF8001946514807F0B6FD6FE40379102B7FF49C
:103E08006CAC8179407903F09FF800230093142269
:103E18000121494807F0A6FD5FE4007905F0C4F8E0
:103E28005BE4007905F0E6F857E4043005F02AF978
:103E380053E40D30FEF73AFF424B5B7B43B93E4BF0
:103E48009869043004F038F93A4B02221A7044E4B5
:103E580001210846FFF708FA3A4B00221A73FEF7C9
:103E680001FF36493B48FEF749FE36E4043004F0CA
:103E78006BFF304B02221A702FE4043004F0A0FECE
:103E88002C4B02221A7028E4043006F001FA294B60
:103E980002221A7021E4FFF799F91EE4214B1B78DE
:103EA8000B2B0CD0122B0AD0132B08D0042B06D0C6
:103EB800052B04D00F2B04D106F008FB01E005F018
:103EC800BFF900230093122202211B4807F04AFD84
:103ED800184B04221A7000E44279837903EB022319
:103EE8001D4A53800379012B0AD0022B7FF4F5ABCE
:103EF800072000F087FE184B5A881A80FFF7EDBBA1
:103F0800052000F07FFEFFF7E8BB043004F0B4FEA4
:103F1800084B02221A70FFF7E0BB00BF00080140FF
:103F280034010020DD00002000040040E2000020F1
:103F3800E8000020FC000020083100201C000020C0
:103F480094D000084401002074D000081900002013
:103F580018000020B0D0000824010020033006F02B
:103F6800DDF8C14B02221A70FFF7B7BBFEF7C0FE9F
:103F7800FFF7B3BB0379042B0FD00B2B0DD0122BFB
:103F88000BD00C2B24D00E2B22D0102B20D0052B9D
:103F980006D10520FEF76EFD02E00420FEF76AFD5B
:103FA800B24CA3691A798DF80C205B798DF80D3025
:103FB80003AB0093022305220321AD4807F0D2FC8E
:103FC800A3691A79AB49AC48FEF798FDFFF785BBA2
:103FD8000E20FEF74FFDA54B9B691B79102BDFD1F7
:103FE8000121084602F0B0FFDAE743798DF80C307A
:103FF80083798DF80D3003AB009302230622032149
:104008009B4807F0AFFCFFF768BB43798DF80C308D
:1040180083798DF80D30C3798DF80E3003AB00939A
:10402800032307221946924807F09CFCFFF755BB6B
:10403800C47803AD2246011D284607F0ADF8009567
:104048002346082203218A4807F08CFCFFF745BB6A
:1040580003798DF80C3043798DF80D3003AB00935C
:10406800022309220321824807F07CFCFFF735BBB5
:1040780003798DF80C3043798DF80D3003AB00933C
:104088000223012204217A4807F06CFC774B9B69D4
:104098001A7978497948FEF731FDFFF71EBB03AC62
:1040A80004228118204607F077F80094042302229E
:1040B80019466F4807F056FCFFF70FBB03AC042204
:1040C8008118204607F068F8009404230322194653
:1040D800674807F047FCFFF700BBC47803AD2246EA
:1040E800011D284607F058F800952346042211467A
:1040F8005F4807F037FCFFF7F0BA03798DF80C300A
:1041080043798DF80D3084790DF10E052246C11DD5
:10411800284607F041F8009523469DF80D209DF8A4
:104128000C10534807F01EFC0E20FEF7A3FC0121DB
:10413800084602F009FF4F495148FEF7DFFCFFF738
:10414800CCBA112006F062F8FFF7C7BAFEF7D6FE20
:10415800FFF7C3BA02F052FDFFF7BFBA007902F0C9
:104168005FFD0023009303220921404807F0FAFB72
:10417800FFF7B3BA02F0C6FD002300930422092119
:104188003A4807F0EFFBFFF7A8BA03798DF80C302F
:1041980043798DF80D3083798DF80E30C3798DF819
:1041A8000F3003A802F0B6FD002300930522092171
:1041B8002E4807F0D7FBFFF790BA007902F082FE8D
:1041C800FFF78BBA03798DF80C3043798DF80D30F1
:1041D80003A802F047FD0023009307220921234882
:1041E80007F0C0FBFFF779BA02F078FDFFF775BA60
:1041F800043002F0EBFDFFF770BA007902F038FEE8
:104208001A4883691B798DF80C3003AB009301239E
:104218001022092107F0A6FBFFF75FBA0379102BDC
:1042280002D00E2B7FF459AA02F062FEFFF755BAAE
:10423800144B01221A740F491348FEF75FFCFFF76D
:104248004CBA8DF80C3003AB009301231A46202199
:10425800074807F087FB00F055FC01230B4A137051
:104268000B4A1370FFF739BAFC0000200831002010
:10427800303300201C000020D0D00008F4D0000803
:1042880018D100084401002038D10008DC000020C3
:10429800E8000020204AD2F88031DB43C2F88031A0
:1042A80021BB1E4B1B78012B0ED0022B7FF415AAC5
:1042B8001B4B9969CB78087900EB0320053180B254
:1042C80002F080FEFFF709BA154B9B69D9781A7975
:1042D800053302EB0122009393B2022220211148F8
:1042E80007F082FB00F020FCFFF7F7B902238DF8F6
:1042F8000C3003AB0093012304222021084807F067
:1043080031FBFFF7EAB90023009303222021054877
:1043180007F028FBFFF7E1B900002342DC0000208A
:10432800083100203033002000B585B00023039306
:104338000B4B1A788DF80C205A788DF80D209A7846
:104348008DF80E20DB788DF80F3003AB0093042333
:1043580001220521034807F005FB05B05DF804FBC1
:10436800180100200831002000B585B00023029311
:104378008DF80C300D4B1A788DF808209A788DF846
:1043880009201A7A8DF80A205A7A8DF80B20DB78E2
:104398008DF80C3002AB009305230222012104485A
:1043A80007F0E0FA05B05DF804FB00BF1801002033
:1043B8000831002000B585B00C4B1B88ADF80C30D7
:1043C80000238DF80E308DF80C000B0A8DF80D3097
:1043D8008DF80E1003AB0093032306220121044835
:1043E80007F0C0FA05B05DF804FB00BF50C800082C
:1043F8000831002030B587B0002303930493ADF84B
:104408001430014611F8014B03AD2246284606F048
:10441800C3FE0095234601220321024807F0A2FAB1
:1044280007B030BD0831002000B585B000230293E5
:104438008DF80C308DF808000B4B5A88110A8DF84E
:1044480009108DF80A209B881A0A8DF80B208DF820
:104458000C3002AB0093052304220321034807F024
:1044680081FA05B05DF804FB240100200831002022
:1044780000B585B00023ADF80C30094B1B788DF8DA
:104488000C30084B1B788DF80D3003AB00930223DA
:1044980001220421044807F065FA05B05DF804FB21
:1044A800E3000020E4000020083100202C4B1B789A
:1044B800002B54D010B52B4BD3F83C3153BB2A4BAF
:1044C800DB7833B9284A53780133DBB25370092BB0
:1044D80003D8254B00221A7010BD134600245470CF
:1044E8000122DA709C701A715C71204B05221A70D7
:1044F8001F4B1C70FFF7BCFF022006F0BFFD1D4BD1
:104508005C701C709C70DC701C711B491B48FEF7AA
:10451800F5FADEE7144B9B7833B9134A1378013365
:10452800DBB21370092B03D80F4B00225A70D3E764
:1045380013460021117001229A70D9701A715A71AC
:104548000A4B052119700A4B1A70FFF791FF0220D8
:1045580006F08AFD08490A48FEF7D0FAE4E77047F2
:10456800E8000020000023422C010020E300002086
:10457800E4000020340100201C00002074D1000851
:1045880088D1000808B5214B1B7883B1204BD3F89C
:104598001031EBB91F4BDB7833B91E4A537801331E
:1045A800DBB25370092B03D81A4B00221A7008BDCE
:1045B800134600225A700121D9709A7019715A71E4
:1045C800154B08211970154B1A70FFF751FFEBE7CF
:1045D800104B9B7833B90F4A13780133DBB2137051
:1045E800092B03D80B4B00225A70E0E71346002131
:1045F800117001229A70D9701A715A71064B0821EC
:104608001970064B1A70FFF733FFEBE7E80000203C
:10461800000021423C010020E3000020E4000020CB
:1046280000B585B002460B4600218DF80F108DF8B5
:104638000F3003B101230DF10F0100910821034848
:1046480007F090F905B05DF804FB00BF08310020C1
:1046580000B585B000238DF80F308DF80F000128C4
:104668000BD90DF10F030093012302220321074800
:1046780007F078F905B05DF804FB054B1870642263
:104688000321102006F05AFDEBE700BF0831002097
:104698006801002000B585B000238DF80F30022393
:1046A8008DF80F300DF10F03009301231A462021D6
:1046B800024807F057F905B05DF804FB08310020FF
:1046C80000B585B000238DF80F308DF80F000DF17F
:1046D8000F030093012302222021034807F042F927
:1046E80005B05DF804FB00BF08310020034B1879C2
:1046F80000B9704700221A715879FAE7340100208E
:10470800014B9878704700BF34010020014B00220C
:104718001A8070472A010020014B00221A71704745
:104728003401002008B50320FFF792FF024903482F
:10473800FEF7E4F908BD00BF1C0000209CD100086A
:1047480000B587B0002303930493ADF814300B4BE6
:104758001B788DF80C300DF10D0000F0F1F903AB6A
:104768000093032309220121054807F0FBF80549B6
:104778000548FEF7C3F907B05DF804FBFC0000200C
:10478800083100201C000020ACD1000808B5084BF7
:104798001B7833B1074A138801339BB21380272B48
:1047A80000D808BD134600221A80FFF7C9FFF8E7B2
:1047B800E80000202A01002010B4324AD3780133DF
:1047C800DBB2D370642B41D02E4C20782E4BA3FB48
:1047D8000021C90801F1300C2C4A82F800C001EB15
:1047E80081014FEA410CA0EB0C003030507060782A
:1047F800A3FB00C1C90801F1300C82F803C001EB2A
:1048080081014FEA410CA0EB0C0030301071A07808
:10481800A3FB00C1C90801F1300C82F806C001EB06
:1048280081014FEA410CA0EB0C003030D071E178E7
:10483800A3FB0103DB0803F13000507203EB830391
:104848005800091A3031917210BC70470023D37098
:1048580093780133DBB293703C2BB5D1002393706E
:1048680053780133DBB253703C2BADD10023537026
:1048780013780133DBB21370642BA5D113460022E1
:104888001A70A1E764010020CDCCCCCC1C0000201C
:1048980008B5254A6421002006F0D0FB234A0521EB
:1048A800012006F0CBFB224A0221084606F0C6FB8F
:1048B800204A0A21032006F0C1FB1F4A0A210420CE
:1048C80006F0BCFB1D4A0221052006F0B7FB1C4A76
:1048D8000221062006F0B2FB1A4A0321072006F03F
:1048E800ADFB194A0A21082006F0A8FB174A0A213D
:1048F800092006F0A3FB002006F0B6FB012006F015
:10490800B3FB042006F0B0FB052006F0ADFB062043
:1049180006F0AAFB072006F0A7FB082006F0A4FB78
:10492800032006F0A1FB08BDE92B0008B5440008E8
:10493800252B00088D450008954700083D8600088E
:10494800459F0008A5AB0008B9540008D98700089E
:1049580008B52249002006F0D9FB2149012006F0BC
:10496800D5FB2049022006F0D1FB1F49032006F0A1
:10497800CDFB1E49042006F0C9FB1D49052006F0A1
:10498800C5FB1C49062006F0C1FB1B49072006F0A1
:10499800BDFB1A49082006F0B9FB1949092006F0A1
:1049A800B5FB18490A2006F0B1FB17490B2006F0A1
:1049B800ADFB16490C2006F0A9FB15490D2006F0A1
:1049C800A5FB14490E2006F0A1FB13490F2006F0A1
:1049D8009DFB1249102006F099FB08BDADB30008F5
:1049E800BDB30008D1B30008E1B30008F5B300086F
:1049F80005B4000819B4000829B40008C1840008E7
:104A0800F9850008A5550008318600085DA0000852
:104A180065AC0008D1830008F1A00008BD2B000890
:104A280008B50A4A0023137113705370937001215B
:104A3800D1705371064A1371137053709370D1700B
:104A4800537114210348FDF7BFFF08BD2C01002056
:104A5800340100204401002008B5FDF7D1FE40B91B
:104A680006F010FD06F0F8FC0C4A136801331360D9
:104A780008BDFDF7CBFE06F0B5FA06F00DFB06F013
:104A8800D9FC01F0BBFD03F025FF05F0BFFCFFF7E3
:104A980093FE024A938801339380E1E744010020A2
:104AA80008B5164B1B78042B13D0052B1BD0144BC1
:104AB8001B780B2B03D0122B01D0132B08D10B2002
:104AC800FDF7D8FF04F06EF816210020FEF7CCFBA6
:104AD80008BD0420FDF7CEFF04F064F80221002091
:104AE800FEF7C2FBF4E70520FDF7C4FF04F05AF80F
:104AF80003210020FEF7B8FBEAE700BF7E01002093
:104B0800DD00002008B5064B01221A70054B07226C
:104B18001A70642202210A2006F010FB08BD00BFAB
:104B2800700100206D01002008B5044B07221A709F
:104B3800FA2201210A2006F001FB08BD6D010020C0
:104B4800034B1B780370034B1B784370704700BFFF
:104B58007C01002077010020014B01221A70704768
:104B680078010020014B1878704700BF71010020C0
:104B7800014B00221A70704771010020014B187018
:104B8800704700BF72010020064B1870132800D030
:104B98007047054B1B78002BFAD1024B0B221A7079
:104BA800F6E700BF7E0100201800002008B5094B79
:104BB800187001F091FF48B1074B04221A70074B97
:104BC8001B7813B1034B09221A7008BD024B00224F
:104BD8001A70F4E77F01002076010020720100209E
:104BE800014B1880704700BF80010020014B1878E6
:104BF800704700BF3F000020014B1878704700BF86
:104C08007D01002000B585B00246002303930B4BBD
:104C18005988080A8DF80C008DF80D109B88190A20
:104C28008DF80E108DF80F3003AB0093042302218A
:104C3800034806F097FE05B05DF804FB2401002048
:104C48003033002000B585B0002302930393144B42
:104C58001B788DF80830134B1B881A0A8DF8092029
:104C68008DF80A30104B1B788DF80B300F4B1B78E2
:104C78008DF80C300E4B1B881A0A8DF80D208DF814
:104C88000E300C4B1B788DF80F3002AB00930823C5
:104C980001220221084806F065FE05B05DF804FB14
:104CA800DE000020800100207E0100207F0100201E
:104CB80024010020760100203033002000B585B0A3
:104CC8000A4600238DF80F300DF10F0100910146BF
:104CD800024806F047FE05B05DF804FB30330020BB
:104CE80030B591B0002103912E2204A807F050FBA3
:104CF8009C4B9869998A431813F8032C13F8024CB3
:104D080004EB0224A4B2043989B2013006F0EAFFA8
:104D1800844229D1934B98694478817801EB042324
:104D28009BB2B3F5437F49D2B3F5407F1ED8B3F5A4
:104D3800827F13D9B3F5027F13D8B3F5007F10D95A
:104D4800A3F20123072B0CD8DFE813F066017801E2
:104D58009201B901D3010B00D301D801B3F5807FCB
:104D680022D8814B00221A7011B030BDA3F2013352
:104D78000A2BF6D801A252F823F000BF33510008DD
:104D88006B4D00086B4D00086B4D00088B510008F7
:104D9800A1510008AB510008B5510008BF510008E7
:104DA800C9510008F3510008A3F20113032BD8D806
:104DB800DFE813F061009800D000F80040F20162CB
:104DC800934200F08B821FD942F20102934200F015
:104DD800A1823CD942F20202934200F0BF8242F221
:104DE80003029342BDD103212020FEF785FA002358
:104DF8005E4A13705C4A13705D4A13705D4A137003
:104E08000A2006F0B9F9ACE740F2044293420CD804
:104E1800B3F5806FA5D9A3F20143032BA1D8DFE82E
:104E280013F0FD0108020D02110240F201529342F3
:104E380097D10379012B00F03B82022B00F04A82C4
:104E4800032B40F038824C4B09221A7033E240F2AF
:104E58000262934200F04D8240F20172934280D187
:104E68000379417901EB032189B2444B198004206D
:104E7800FFF7A0FA75E700233B4A1370404A137006
:104E88003C4A13703F4B1B78012B12D001203E4B3C
:104E980058700221FFF712FF364B05221A70642260
:104EA80003210A2006F04AF938493948FDF726FE59
:104EB80057E7354B1B781BB9324B00221A70E5E7D0
:104EC8002D4B04221A70334B01221A70FFF7D0FAC7
:104ED800314B5A6942F0E0025A611A6942F0800285
:104EE8001A61E9E702792D4B1A7002210120FFF7B8
:104EF800E5FE244B1B78012B10D0294B1B78002B87
:104F08007FF42FAF00241B4B1C700A2006F034F9E5
:104F1800154B1C70224B01221A7022E71A4B1B7882
:104F280033B9184B00221A70174B01225A70E4E764
:104F3800114B04221A70174B01221A70FFF798FAC6
:104F4800154B5A6942F0E0025A611A6942F0800230
:104F58001A61E6E7074B00221A700A2006F00CF9DE
:104F6800FFE600BF303300206A010020DC0000208B
:104F78007D0100206D010020E30000206E0100206B
:104F88006B0100207B010020E80000201C000020AD
:104F9800D4D10008E4000020000801407C01002072
:104FA8006C01002002210120FFF788FEA84B9B69B5
:104FB8001A79A84B1A70A84B1B78012B10D0A74B55
:104FC8001B78002B7FF4CDAE0024A54B1C700A2063
:104FD80006F0D2F8A34B1C70A04B01221A70C0E651
:104FE800A14B1B7833B99C4B00221A709E4B0122AF
:104FF8005A70E4E79D4B04221A709D4B01221A70E7
:10500800FFF736FA9B4B5A6942F0E0025A611A6977
:1050180042F080021A61E6E7FFF742FD904B00225A
:105028001A700A2006F0A8F8934B02221A70934BC4
:105038001A7893499348FDF761FD92E6884B002260
:105048001A700A2006F098F88C4B1B780C2B03D0AA
:105058000E2B01D0102B01D101F076F8864B0322DC
:105068001A70864B1A7886498748FDF747FD78E617
:105078007B4B00221A700A2006F07EF87E4B012234
:105088001A707E4B1B780C2B10D00E2B0ED0102BC9
:105098000CD01A1FD2B2012A05D90B2B03D0122B20
:1050A80001D0132B04D103F0B3FE01E001F092FA12
:1050B800724B1A7872497548FDF720FD51E6684B26
:1050C80000221A700A2006F057F86B4B04221A7057
:1050D8006A4B1B780C2B03D00E2B01D0102B01D15F
:1050E80001F066FA654B1A7865496948FDF706FDCF
:1050F80037E613210220FEF7FFF832E65F4B1B78F4
:105108000C2B08D00E2B06D0102B04D0052B04D165
:1051180004F0CAF801E001F04BFA574B04221A7068
:1051280057495C48FDF7EAFC1BE60330FFF762F9D4
:10513800474B9A691179537903EB01239BB2564A7D
:105148001380013B9BB2B3F5547F09D8494B5A6988
:1051580042F0E0025A611A6942F040021A6100E620
:10516800444B5A6942F0E0025A611A6942F020023F
:105178001A614A4B01221A70404B1878FDF7A2FCBD
:10518800EFE50330FEF7F2F8314B9B691A793C4999
:105198004348FDF7B3FCE4E503210620FEF7ACF82D
:1051A800DFE504210620FEF7A7F8DAE50521062049
:1051B800FEF7A2F8D5E506210846FEF79DF8D0E5EA
:1051C800C278951CEDB28DF80C408DF80D10011DBC
:1051D8000DF10E0005F0E0FF03AB00932B4605220E
:1051E8000721304806F0BEFBBBE5C278951CEDB23E
:1051F8008DF80C408DF80D10011D0DF10E0005F015
:10520800CBFF03AB00932B4605220721254806F068
:10521800A9FB1B492448FDF771FCA2E50330FEF702
:10522800C1F80B4B9B691A7915492048FDF766FCB4
:1052380097E502210720FEF75FF892E50430FEF7B4
:10524800C1F88EE504210720FEF756F889E500BF6E
:10525800303300207C0100207B0100206C010020FD
:105268006D0100206A010020E8000020E300002012
:10527800E40000200008014077010020DD00002044
:105288001C000020ECD1000814D200083CD2000811
:1052980068D2000890D20008740100207101002033
:1052A800B0D2000808310020D0D20008F0D200089F
:1052B800334B07221A70334B00221A70FFF7D8F8C5
:1052C800314B5A6942F0E0025A611A6942F02002F1
:1052D8001A6146E52A4B0D221A70ECE703794179E9
:1052E80001EB032189B2294B19801520FFF762F8D9
:1052F80037E51322011D0DF10D0005F04DFF0622C3
:105308008DF80C2003AB009314230121204806F0EC
:1053180029FB26E51F4B1B78B3B91F4B01221A70D6
:105328001E4B9B691B791E4A13701E4A012151703E
:10533800FF2B0FD01C4B01221A701C4B00221A7035
:105348000A2005F019FF0CE5FFF7A4F9114B00221C
:105358001A70E5E7144B00221A70EEE70379012B67
:1053680009D00020FFF7ACF9104B00221A700A2070
:1053780005F002FFF5E40120FFF7A2F9F4E700BF0A
:10538800E3000020E4000020000801406E01002036
:1053980008310020700100207D01002030330020FA
:1053A8003F000020E8000020DC0000206D01002004
:1053B80000B583B0013805280ED8DFE800F00313E4
:1053C800232F3C41FFF73EFC204B01221A70642238
:1053D80003210A2005F0B2FE1D4B00221A7003B00B
:1053E8005DF804FB0023009302221146194806F0D9
:1053F800F2FB164B02221A70642203210A2005F0E0
:105408009DFEE9E704210220FFF758FC03210F4B1A
:10541800197064220A2005F091FEDDE703210220BD
:10542800FFF74CFC094B04221A70642203210A205E
:1054380005F084FED0E708210220FFF73FFCCBE708
:1054480013210220FFF73AFCC6E700BF6D010020D8
:105458006A0100203033002008B502210620FFF73A
:105468002DFC08BD00B585B08DF80F200DF10F0398
:10547800009301230A460146024806F073FA05B074
:105488005DF804FB3033002000B585B002238DF8A9
:105498000F300DF10F03009301231A462021034812
:1054A80006F060FA05B05DF804FB00BF3033002059
:1054B8002D4B1B786BB12D4B1B7853B92C4B5B785C
:1054C800002B3DD12B4A13780133DBB21370092B23
:1054D80000D8704710B5134600221A7001210846FB
:1054E800FFF7ECFB244B1B7833B9244A13780133BC
:1054F800DBB21370052B00D010BD134604221A70BE
:105508001B4B1B78002BF7D01D4B07221A701D4B25
:1055180004221A7000241C4B1C70FEF7A9FF174BBD
:105528001C700123144A1370184A1370184B5A69D7
:1055380042F0E0025A611A6942F020021A61DBE780
:10554800144B1B78012BC4D1134A13780133DBB2F7
:105558001370402BBDD900231370054A5370064AB7
:105568001370064A1370704778010020DC00002091
:10557800E80000206B0100207A010020790100205A
:105588007C010020E3000020E40000207B010020D3
:10559800000801406C0100206A01002008B5194B81
:1055A8001B78013B062B07D8DFE803F0040A0F1429
:1055B8001D222900FFF746FB134B00221A7008BD75
:1055C80002210846FFF77AFBF6E704210220FFF7DD
:1055D80075FBF1E703210220FFF770FB00F0FAFFEB
:1055E80003F016FCE8E702210120FFF767FBE3E779
:1055F800064B1A7801210520FFF734FFDCE7FFF797
:1056080043FFD9E76D0100206A01002069010020ED
:1056180000B583B0ADF8041014238DF807300323C8
:105628008DF8063001A9FBF765FE03B05DF804FBB1
:1056380000B583B0ADF8041010238DF807300323AC
:105648008DF8063001A9FBF755FE03B05DF804FBA1
:105658002DE9F04105460C464FF00108052334E0DA
:1056680021462846FFF7E4FF21462846FBF7A4FE1B
:1056780040F22620FCF722FA21462846FBF79AFE3C
:105688000520FCF71BFA21462846FFF7C1FFC7F1A2
:10569800050606EB860040002830FCF70FFA214685
:1056A8002846FBF780FE80466FF0090006FB00F0F5
:1056B80000F5DC70FCF702FA21462846FFF7B8FF30
:1056C80021462846FBF776FE3B46B8F1000F03D08B
:1056D8005F1EFFB2002BC3D16420FCF7EFF94046F0
:1056E800BDE8F081F0B583B005460C46002601966A
:1056F800374625E000238DF804303FE000238DF87D
:10570800053041E000238DF8063043E000238DF892
:10571800073045E00133DBB2032B08D802A919444E
:1057280011F8041C0029F5D00132D2B2F2E7022A9E
:1057380001D947F080074620FCF7C0F90136F6B2D8
:10574800072E38D87F0821462846FBF735FE082063
:10575800FCF7B4F921462846FBF72CFE0120FCF79C
:10576800ADF921462846FFF753FF0720FCF7A6F9B5
:10577800AB682342BED001238DF80430AB681C42CD
:10578800BCD001238DF80530AB681C42BAD0012388
:105798008DF80630AB681C42B8D001238DF807306D
:1057A80021462846FFF744FF21462846FBF702FE1C
:1057B80000221346B0E76420FCF780F9384603B0AE
:1057C800F0BDF8B507460E46154600240FE03146F1
:1057D8003846FBF7F1FD5A20FCF770F93146384698
:1057E800FBF7E8FD0A20FCF769F90134E4B2072C5D
:1057F80013D805F001036D08002BE8D03146384670
:10580800FBF7DAFD0820FCF759F931463846FBF773
:10581800D1FD5C20FCF752F9E7E76420FCF74EF96C
:10582800F8BD000070B505460E46FFF711FF08B138
:10583800002070BD0446332231462846FFF7C1FFD9
:1058480007E031462846FFF74DFF044B1855013451
:10585800E4B2072CF5D90120EBE700BF8401002052
:105868002DE9F84305460E4690469DF820705201F2
:1058780052B242EAC30202F0F804FFF7E9FEB8BBED
:105888008146CC2231462846FFF79BFFF02231465D
:105898002846FFF796FF224631462846FFF791FF34
:1058A800002231462846FFF78CFF4C4607E0314678
:1058B8002846FFF717FF104B18550134E4B2BC42D5
:1058C800F5D3B8F1030F02D04846BDE8F883202F7E
:1058D800FAD14B4601E00133DBB2074AD25CFF2A1A
:1058E80001D11F2BF7D91F2BEED94FF01709EBE782
:1058F8004FF00409E8E700BF8C0100200020704742
:105908002DE9F04105460E46FFF78CFF3146284643
:10591800FFF79EFE10B10420BDE8F0810446CC22BA
:1059280031462846FFF74DFF552231462846FFF7F6
:1059380048FF012707E0384BDA5D31462846FFF774
:1059480040FF0137FFB2032FF5D9DFF8D080D8F830
:105958000030334FBE464EF8043BDFF8C8C0BCE801
:105968000F007860CEF80410CEF80820CEF80C307E
:10597800BCE80700CEF81000CEF81410CEF81820B6
:10598800254A131D03CB3862796253785B0987F87F
:105998002830254B1868C7F829009A889B79A7F8FA
:1059A8002D2087F82F30D8F804303B636FF07F4301
:1059B800BB8687F83630802387F837300023BB63EF
:1059C800BB87012387F83E30B82387F83F3000F0C3
:1059D8009FF90220FCF792F807E0144B1A5D314654
:1059E8002846FFF7EEFE0134E4B2132CF5D90C205B
:1059F800FCF784F8094B00221A605A6031462846A1
:105A0800FFF770FEAA2803D0552803D0122083E799
:105A1800112081E711207FE7AC010020BC010020A4
:105A2800440300208C01002084010020F0010020A4
:105A380010490B88DAB25040C2B21B0A0B8000F042
:105A48000F0C0D4911F80CC0C0F30310095C8C450C
:105A580005D083F4404383F0010306490B80054BCE
:105A6800188880EA821080B2188080EAC2101880F4
:105A7800704700BF8201002010D300082DE9F843C9
:105A880006460F4690461C46FFF7E2FD002852D115
:105A98000546CC2239463046FFF793FE284B0F22A5
:105AA8001A7083F8018000229A702A464FF0030882
:105AB8000CE0234608F1010113F8014B204800F8D7
:105AC80008400132D2B25FFA81F81C46072AF0D9A1
